{
  "_format": "hh-sol-artifact-1",
  "contractName": "BaseERC721",
  "sourceName": "contracts/BaseERC721.sol",
  "abi": [
    {
      "inputs": [],
      "stateMutability": "nonpayable",
      "type": "constructor"
    },
    {
      "anonymous": false,
      "inputs": [
        {
          "indexed": true,
          "internalType": "address",
          "name": "owner",
          "type": "address"
        },
        {
          "indexed": true,
          "internalType": "address",
          "name": "approved",
          "type": "address"
        },
        {
          "indexed": true,
          "internalType": "uint256",
          "name": "tokenId",
          "type": "uint256"
        }
      ],
      "name": "Approval",
      "type": "event"
    },
    {
      "anonymous": false,
      "inputs": [
        {
          "indexed": true,
          "internalType": "address",
          "name": "owner",
          "type": "address"
        },
        {
          "indexed": true,
          "internalType": "address",
          "name": "operator",
          "type": "address"
        },
        {
          "indexed": false,
          "internalType": "bool",
          "name": "approved",
          "type": "bool"
        }
      ],
      "name": "ApprovalForAll",
      "type": "event"
    },
    {
      "anonymous": false,
      "inputs": [
        {
          "indexed": true,
          "internalType": "address",
          "name": "previousOwner",
          "type": "address"
        },
        {
          "indexed": true,
          "internalType": "address",
          "name": "newOwner",
          "type": "address"
        }
      ],
      "name": "OwnershipTransferred",
      "type": "event"
    },
    {
      "anonymous": false,
      "inputs": [
        {
          "indexed": true,
          "internalType": "address",
          "name": "to",
          "type": "address"
        },
        {
          "indexed": true,
          "internalType": "uint256",
          "name": "tokenId",
          "type": "uint256"
        },
        {
          "indexed": false,
          "internalType": "string",
          "name": "uri",
          "type": "string"
        }
      ],
      "name": "TokenURIChanged",
      "type": "event"
    },
    {
      "anonymous": false,
      "inputs": [
        {
          "indexed": true,
          "internalType": "address",
          "name": "from",
          "type": "address"
        },
        {
          "indexed": true,
          "internalType": "address",
          "name": "to",
          "type": "address"
        },
        {
          "indexed": true,
          "internalType": "uint256",
          "name": "tokenId",
          "type": "uint256"
        }
      ],
      "name": "Transfer",
      "type": "event"
    },
    {
      "inputs": [
        {
          "internalType": "address",
          "name": "to",
          "type": "address"
        },
        {
          "internalType": "uint256",
          "name": "tokenId",
          "type": "uint256"
        }
      ],
      "name": "approve",
      "outputs": [],
      "stateMutability": "nonpayable",
      "type": "function"
    },
    {
      "inputs": [
        {
          "internalType": "address",
          "name": "owner",
          "type": "address"
        }
      ],
      "name": "balanceOf",
      "outputs": [
        {
          "internalType": "uint256",
          "name": "",
          "type": "uint256"
        }
      ],
      "stateMutability": "view",
      "type": "function"
    },
    {
      "inputs": [
        {
          "internalType": "uint256",
          "name": "tokenId",
          "type": "uint256"
        }
      ],
      "name": "getApproved",
      "outputs": [
        {
          "internalType": "address",
          "name": "",
          "type": "address"
        }
      ],
      "stateMutability": "view",
      "type": "function"
    },
    {
      "inputs": [
        {
          "internalType": "address",
          "name": "owner",
          "type": "address"
        },
        {
          "internalType": "address",
          "name": "operator",
          "type": "address"
        }
      ],
      "name": "isApprovedForAll",
      "outputs": [
        {
          "internalType": "bool",
          "name": "",
          "type": "bool"
        }
      ],
      "stateMutability": "view",
      "type": "function"
    },
    {
      "inputs": [],
      "name": "name",
      "outputs": [
        {
          "internalType": "string",
          "name": "",
          "type": "string"
        }
      ],
      "stateMutability": "view",
      "type": "function"
    },
    {
      "inputs": [
        {
          "internalType": "address",
          "name": "to",
          "type": "address"
        },
        {
          "internalType": "string",
          "name": "uri",
          "type": "string"
        }
      ],
      "name": "nftMint",
      "outputs": [],
      "stateMutability": "nonpayable",
      "type": "function"
    },
    {
      "inputs": [],
      "name": "owner",
      "outputs": [
        {
          "internalType": "address",
          "name": "",
          "type": "address"
        }
      ],
      "stateMutability": "view",
      "type": "function"
    },
    {
      "inputs": [
        {
          "internalType": "uint256",
          "name": "tokenId",
          "type": "uint256"
        }
      ],
      "name": "ownerOf",
      "outputs": [
        {
          "internalType": "address",
          "name": "",
          "type": "address"
        }
      ],
      "stateMutability": "view",
      "type": "function"
    },
    {
      "inputs": [],
      "name": "renounceOwnership",
      "outputs": [],
      "stateMutability": "nonpayable",
      "type": "function"
    },
    {
      "inputs": [
        {
          "internalType": "address",
          "name": "from",
          "type": "address"
        },
        {
          "internalType": "address",
          "name": "to",
          "type": "address"
        },
        {
          "internalType": "uint256",
          "name": "tokenId",
          "type": "uint256"
        }
      ],
      "name": "safeTransferFrom",
      "outputs": [],
      "stateMutability": "nonpayable",
      "type": "function"
    },
    {
      "inputs": [
        {
          "internalType": "address",
          "name": "from",
          "type": "address"
        },
        {
          "internalType": "address",
          "name": "to",
          "type": "address"
        },
        {
          "internalType": "uint256",
          "name": "tokenId",
          "type": "uint256"
        },
        {
          "internalType": "bytes",
          "name": "data",
          "type": "bytes"
        }
      ],
      "name": "safeTransferFrom",
      "outputs": [],
      "stateMutability": "nonpayable",
      "type": "function"
    },
    {
      "inputs": [
        {
          "internalType": "address",
          "name": "operator",
          "type": "address"
        },
        {
          "internalType": "bool",
          "name": "approved",
          "type": "bool"
        }
      ],
      "name": "setApprovalForAll",
      "outputs": [],
      "stateMutability": "nonpayable",
      "type": "function"
    },
    {
      "inputs": [
        {
          "internalType": "bytes4",
          "name": "interfaceId",
          "type": "bytes4"
        }
      ],
      "name": "supportsInterface",
      "outputs": [
        {
          "internalType": "bool",
          "name": "",
          "type": "bool"
        }
      ],
      "stateMutability": "view",
      "type": "function"
    },
    {
      "inputs": [],
      "name": "symbol",
      "outputs": [
        {
          "internalType": "string",
          "name": "",
          "type": "string"
        }
      ],
      "stateMutability": "view",
      "type": "function"
    },
    {
      "inputs": [
        {
          "internalType": "uint256",
          "name": "index",
          "type": "uint256"
        }
      ],
      "name": "tokenByIndex",
      "outputs": [
        {
          "internalType": "uint256",
          "name": "",
          "type": "uint256"
        }
      ],
      "stateMutability": "view",
      "type": "function"
    },
    {
      "inputs": [
        {
          "internalType": "address",
          "name": "owner",
          "type": "address"
        },
        {
          "internalType": "uint256",
          "name": "index",
          "type": "uint256"
        }
      ],
      "name": "tokenOfOwnerByIndex",
      "outputs": [
        {
          "internalType": "uint256",
          "name": "",
          "type": "uint256"
        }
      ],
      "stateMutability": "view",
      "type": "function"
    },
    {
      "inputs": [
        {
          "internalType": "uint256",
          "name": "tokenId",
          "type": "uint256"
        }
      ],
      "name": "tokenURI",
      "outputs": [
        {
          "internalType": "string",
          "name": "",
          "type": "string"
        }
      ],
      "stateMutability": "view",
      "type": "function"
    },
    {
      "inputs": [],
      "name": "totalSupply",
      "outputs": [
        {
          "internalType": "uint256",
          "name": "",
          "type": "uint256"
        }
      ],
      "stateMutability": "view",
      "type": "function"
    },
    {
      "inputs": [
        {
          "internalType": "address",
          "name": "from",
          "type": "address"
        },
        {
          "internalType": "address",
          "name": "to",
          "type": "address"
        },
        {
          "internalType": "uint256",
          "name": "tokenId",
          "type": "uint256"
        }
      ],
      "name": "transferFrom",
      "outputs": [],
      "stateMutability": "nonpayable",
      "type": "function"
    },
    {
      "inputs": [
        {
          "internalType": "address",
          "name": "newOwner",
          "type": "address"
        }
      ],
      "name": "transferOwnership",
      "outputs": [],
      "stateMutability": "nonpayable",
      "type": "function"
    }
  ],
  "bytecode": "0x60806040523480156200001157600080fd5b506040518060400160405280600e81526020017f426173654552433732314e616d650000000000000000000000000000000000008152506040518060400160405280601081526020017f4261736545524337323153796d626f6c0000000000000000000000000000000081525081600090816200008f919062000412565b508060019081620000a1919062000412565b505050620000c4620000b8620000ca60201b60201c565b620000d260201b60201c565b620004f9565b600033905090565b6000600b60009054906101000a900473ffffffffffffffffffffffffffffffffffffffff16905081600b60006101000a81548173ffffffffffffffffffffffffffffffffffffffff021916908373ffffffffffffffffffffffffffffffffffffffff1602179055508173ffffffffffffffffffffffffffffffffffffffff168173ffffffffffffffffffffffffffffffffffffffff167f8be0079c531659141344cd1fd0a4f28419497f9722a3daafe3b4186f6b6457e060405160405180910390a35050565b600081519050919050565b7f4e487b7100000000000000000000000000000000000000000000000000000000600052604160045260246000fd5b7f4e487b7100000000000000000000000000000000000000000000000000000000600052602260045260246000fd5b600060028204905060018216806200021a57607f821691505b60208210810362000230576200022f620001d2565b5b50919050565b60008190508160005260206000209050919050565b60006020601f8301049050919050565b600082821b905092915050565b6000600883026200029a7fffffffffffffffffffffffffffffffffffffffffffffffffffffffffffffffff826200025b565b620002a686836200025b565b95508019841693508086168417925050509392505050565b6000819050919050565b6000819050919050565b6000620002f3620002ed620002e784620002be565b620002c8565b620002be565b9050919050565b6000819050919050565b6200030f83620002d2565b620003276200031e82620002fa565b84845462000268565b825550505050565b600090565b6200033e6200032f565b6200034b81848462000304565b505050565b5b8181101562000373576200036760008262000334565b60018101905062000351565b5050565b601f821115620003c2576200038c8162000236565b62000397846200024b565b81016020851015620003a7578190505b620003bf620003b6856200024b565b83018262000350565b50505b505050565b600082821c905092915050565b6000620003e760001984600802620003c7565b1980831691505092915050565b6000620004028383620003d4565b9150826002028217905092915050565b6200041d8262000198565b67ffffffffffffffff811115620004395762000438620001a3565b5b62000445825462000201565b6200045282828562000377565b600060209050601f8311600181146200048a576000841562000475578287015190505b620004818582620003f4565b865550620004f1565b601f1984166200049a8662000236565b60005b82811015620004c4578489015182556001820191506020850194506020810190506200049d565b86831015620004e45784890151620004e0601f891682620003d4565b8355505b6001600288020188555050505b505050505050565b61361180620005096000396000f3fe608060405234801561001057600080fd5b506004361061012c5760003560e01c80636352211e116100ad578063a22cb46511610071578063a22cb46514610343578063b88d4fde1461035f578063c87b56dd1461037b578063e985e9c5146103ab578063f2fde38b146103db5761012c565b80636352211e1461029d57806370a08231146102cd578063715018a6146102fd5780638da5cb5b1461030757806395d89b41146103255761012c565b806323b872dd116100f457806323b872dd146101e95780632f745c591461020557806330e960891461023557806342842e0e146102515780634f6ccce71461026d5761012c565b806301ffc9a71461013157806306fdde0314610161578063081812fc1461017f578063095ea7b3146101af57806318160ddd146101cb575b600080fd5b61014b6004803603810190610146919061212b565b6103f7565b6040516101589190612173565b60405180910390f35b610169610409565b604051610176919061221e565b60405180910390f35b61019960048036038101906101949190612276565b61049b565b6040516101a691906122e4565b60405180910390f35b6101c960048036038101906101c4919061232b565b6104e1565b005b6101d36105f8565b6040516101e0919061237a565b60405180910390f35b61020360048036038101906101fe9190612395565b610605565b005b61021f600480360381019061021a919061232b565b610665565b60405161022c919061237a565b60405180910390f35b61024f600480360381019061024a919061244d565b61070a565b005b61026b60048036038101906102669190612395565b6107d9565b005b61028760048036038101906102829190612276565b6107f9565b604051610294919061237a565b60405180910390f35b6102b760048036038101906102b29190612276565b61086a565b6040516102c491906122e4565b60405180910390f35b6102e760048036038101906102e291906124ad565b61091b565b6040516102f4919061237a565b60405180910390f35b6103056109d2565b005b61030f6109e6565b60405161031c91906122e4565b60405180910390f35b61032d610a10565b60405161033a919061221e565b60405180910390f35b61035d60048036038101906103589190612506565b610aa2565b005b61037960048036038101906103749190612676565b610ab8565b005b61039560048036038101906103909190612276565b610b1a565b6040516103a2919061221e565b60405180910390f35b6103c560048036038101906103c091906126f9565b610b2c565b6040516103d29190612173565b60405180910390f35b6103f560048036038101906103f091906124ad565b610bc0565b005b600061040282610c43565b9050919050565b60606000805461041890612768565b80601f016020809104026020016040519081016040528092919081815260200182805461044490612768565b80156104915780601f1061046657610100808354040283529160200191610491565b820191906000526020600020905b81548152906001019060200180831161047457829003601f168201915b5050505050905090565b60006104a682610cbd565b6004600083815260200190815260200160002060009054906101000a900473ffffffffffffffffffffffffffffffffffffffff169050919050565b60006104ec8261086a565b90508073ffffffffffffffffffffffffffffffffffffffff168373ffffffffffffffffffffffffffffffffffffffff160361055c576040517f08c379a00000000000000000000000000000000000000000000000000000000081526004016105539061280b565b60405180910390fd5b8073ffffffffffffffffffffffffffffffffffffffff1661057b610d08565b73ffffffffffffffffffffffffffffffffffffffff1614806105aa57506105a9816105a4610d08565b610b2c565b5b6105e9576040517f08c379a00000000000000000000000000000000000000000000000000000000081526004016105e09061289d565b60405180910390fd5b6105f38383610d10565b505050565b6000600880549050905090565b610616610610610d08565b82610dc9565b610655576040517f08c379a000000000000000000000000000000000000000000000000000000000815260040161064c9061292f565b60405180910390fd5b610660838383610e5e565b505050565b60006106708361091b565b82106106b1576040517f08c379a00000000000000000000000000000000000000000000000000000000081526004016106a8906129c1565b60405180910390fd5b600660008473ffffffffffffffffffffffffffffffffffffffff1673ffffffffffffffffffffffffffffffffffffffff168152602001908152602001600020600083815260200190815260200160002054905092915050565b6107126110c4565b61071c600c611142565b6000610728600c611158565b90506107348482611166565b6107828184848080601f016020809104026020016040519081016040528093929190818152602001838380828437600081840152601f19601f8201169050808301925050505050505061133f565b808473ffffffffffffffffffffffffffffffffffffffff167f8b781fcc9d1a958b4e7e04390a81f45bdec2dc61341e7b423a537074275dc70d85856040516107cb929190612a0e565b60405180910390a350505050565b6107f483838360405180602001604052806000815250610ab8565b505050565b60006108036105f8565b8210610844576040517f08c379a000000000000000000000000000000000000000000000000000000000815260040161083b90612aa4565b60405180910390fd5b6008828154811061085857610857612ac4565b5b90600052602060002001549050919050565b6000806002600084815260200190815260200160002060009054906101000a900473ffffffffffffffffffffffffffffffffffffffff169050600073ffffffffffffffffffffffffffffffffffffffff168173ffffffffffffffffffffffffffffffffffffffff1603610912576040517f08c379a000000000000000000000000000000000000000000000000000000000815260040161090990612b3f565b60405180910390fd5b80915050919050565b60008073ffffffffffffffffffffffffffffffffffffffff168273ffffffffffffffffffffffffffffffffffffffff160361098b576040517f08c379a000000000000000000000000000000000000000000000000000000000815260040161098290612bd1565b60405180910390fd5b600360008373ffffffffffffffffffffffffffffffffffffffff1673ffffffffffffffffffffffffffffffffffffffff168152602001908152602001600020549050919050565b6109da6110c4565b6109e460006113ac565b565b6000600b60009054906101000a900473ffffffffffffffffffffffffffffffffffffffff16905090565b606060018054610a1f90612768565b80601f0160208091040260200160405190810160405280929190818152602001828054610a4b90612768565b8015610a985780601f10610a6d57610100808354040283529160200191610a98565b820191906000526020600020905b815481529060010190602001808311610a7b57829003601f168201915b5050505050905090565b610ab4610aad610d08565b8383611472565b5050565b610ac9610ac3610d08565b83610dc9565b610b08576040517f08c379a0000000000000000000000000000000000000000000000000000000008152600401610aff9061292f565b60405180910390fd5b610b14848484846115de565b50505050565b6060610b258261163a565b9050919050565b6000600560008473ffffffffffffffffffffffffffffffffffffffff1673ffffffffffffffffffffffffffffffffffffffff16815260200190815260200160002060008373ffffffffffffffffffffffffffffffffffffffff1673ffffffffffffffffffffffffffffffffffffffff16815260200190815260200160002060009054906101000a900460ff16905092915050565b610bc86110c4565b600073ffffffffffffffffffffffffffffffffffffffff168173ffffffffffffffffffffffffffffffffffffffff1603610c37576040517f08c379a0000000000000000000000000000000000000000000000000000000008152600401610c2e90612c63565b60405180910390fd5b610c40816113ac565b50565b60007f780e9d63000000000000000000000000000000000000000000000000000000007bffffffffffffffffffffffffffffffffffffffffffffffffffffffff1916827bffffffffffffffffffffffffffffffffffffffffffffffffffffffff19161480610cb65750610cb58261174c565b5b9050919050565b610cc68161182e565b610d05576040517f08c379a0000000000000000000000000000000000000000000000000000000008152600401610cfc90612b3f565b60405180910390fd5b50565b600033905090565b816004600083815260200190815260200160002060006101000a81548173ffffffffffffffffffffffffffffffffffffffff021916908373ffffffffffffffffffffffffffffffffffffffff160217905550808273ffffffffffffffffffffffffffffffffffffffff16610d838361086a565b73ffffffffffffffffffffffffffffffffffffffff167f8c5be1e5ebec7d5bd14f71427d1e84f3dd0314c0f7b2291e5b200ac8c7c3b92560405160405180910390a45050565b600080610dd58361086a565b90508073ffffffffffffffffffffffffffffffffffffffff168473ffffffffffffffffffffffffffffffffffffffff161480610e175750610e168185610b2c565b5b80610e5557508373ffffffffffffffffffffffffffffffffffffffff16610e3d8461049b565b73ffffffffffffffffffffffffffffffffffffffff16145b91505092915050565b8273ffffffffffffffffffffffffffffffffffffffff16610e7e8261086a565b73ffffffffffffffffffffffffffffffffffffffff1614610ed4576040517f08c379a0000000000000000000000000000000000000000000000000000000008152600401610ecb90612cf5565b60405180910390fd5b600073ffffffffffffffffffffffffffffffffffffffff168273ffffffffffffffffffffffffffffffffffffffff1603610f43576040517f08c379a0000000000000000000000000000000000000000000000000000000008152600401610f3a90612d87565b60405180910390fd5b610f4e83838361189a565b610f59600082610d10565b6001600360008573ffffffffffffffffffffffffffffffffffffffff1673ffffffffffffffffffffffffffffffffffffffff1681526020019081526020016000206000828254610fa99190612dd6565b925050819055506001600360008473ffffffffffffffffffffffffffffffffffffffff1673ffffffffffffffffffffffffffffffffffffffff16815260200190815260200160002060008282546110009190612e0a565b92505081905550816002600083815260200190815260200160002060006101000a81548173ffffffffffffffffffffffffffffffffffffffff021916908373ffffffffffffffffffffffffffffffffffffffff160217905550808273ffffffffffffffffffffffffffffffffffffffff168473ffffffffffffffffffffffffffffffffffffffff167fddf252ad1be2c89b69c2b068fc378daa952ba7f163c4a11628f55a4df523b3ef60405160405180910390a46110bf8383836118aa565b505050565b6110cc610d08565b73ffffffffffffffffffffffffffffffffffffffff166110ea6109e6565b73ffffffffffffffffffffffffffffffffffffffff1614611140576040517f08c379a000000000000000000000000000000000000000000000000000000000815260040161113790612e8a565b60405180910390fd5b565b6001816000016000828254019250508190555050565b600081600001549050919050565b600073ffffffffffffffffffffffffffffffffffffffff168273ffffffffffffffffffffffffffffffffffffffff16036111d5576040517f08c379a00000000000000000000000000000000000000000000000000000000081526004016111cc90612ef6565b60405180910390fd5b6111de8161182e565b1561121e576040517f08c379a000000000000000000000000000000000000000000000000000000000815260040161121590612f62565b60405180910390fd5b61122a6000838361189a565b6001600360008473ffffffffffffffffffffffffffffffffffffffff1673ffffffffffffffffffffffffffffffffffffffff168152602001908152602001600020600082825461127a9190612e0a565b92505081905550816002600083815260200190815260200160002060006101000a81548173ffffffffffffffffffffffffffffffffffffffff021916908373ffffffffffffffffffffffffffffffffffffffff160217905550808273ffffffffffffffffffffffffffffffffffffffff16600073ffffffffffffffffffffffffffffffffffffffff167fddf252ad1be2c89b69c2b068fc378daa952ba7f163c4a11628f55a4df523b3ef60405160405180910390a461133b600083836118aa565b5050565b6113488261182e565b611387576040517f08c379a000000000000000000000000000000000000000000000000000000000815260040161137e90612ff4565b60405180910390fd5b80600a600084815260200190815260200160002090816113a791906131c0565b505050565b6000600b60009054906101000a900473ffffffffffffffffffffffffffffffffffffffff16905081600b60006101000a81548173ffffffffffffffffffffffffffffffffffffffff021916908373ffffffffffffffffffffffffffffffffffffffff1602179055508173ffffffffffffffffffffffffffffffffffffffff168173ffffffffffffffffffffffffffffffffffffffff167f8be0079c531659141344cd1fd0a4f28419497f9722a3daafe3b4186f6b6457e060405160405180910390a35050565b8173ffffffffffffffffffffffffffffffffffffffff168373ffffffffffffffffffffffffffffffffffffffff16036114e0576040517f08c379a00000000000000000000000000000000000000000000000000000000081526004016114d7906132de565b60405180910390fd5b80600560008573ffffffffffffffffffffffffffffffffffffffff1673ffffffffffffffffffffffffffffffffffffffff16815260200190815260200160002060008473ffffffffffffffffffffffffffffffffffffffff1673ffffffffffffffffffffffffffffffffffffffff16815260200190815260200160002060006101000a81548160ff0219169083151502179055508173ffffffffffffffffffffffffffffffffffffffff168373ffffffffffffffffffffffffffffffffffffffff167f17307eab39ab6107e8899845ad3d59bd9653f200f220920489ca2b5937696c31836040516115d19190612173565b60405180910390a3505050565b6115e9848484610e5e565b6115f5848484846118af565b611634576040517f08c379a000000000000000000000000000000000000000000000000000000000815260040161162b90613370565b60405180910390fd5b50505050565b606061164582610cbd565b6000600a6000848152602001908152602001600020805461166590612768565b80601f016020809104026020016040519081016040528092919081815260200182805461169190612768565b80156116de5780601f106116b3576101008083540402835291602001916116de565b820191906000526020600020905b8154815290600101906020018083116116c157829003601f168201915b5050505050905060006116ef611a36565b90506000815103611704578192505050611747565b6000825111156117395780826040516020016117219291906133cc565b60405160208183030381529060405292505050611747565b61174284611a4d565b925050505b919050565b60007f80ac58cd000000000000000000000000000000000000000000000000000000007bffffffffffffffffffffffffffffffffffffffffffffffffffffffff1916827bffffffffffffffffffffffffffffffffffffffffffffffffffffffff1916148061181757507f5b5e139f000000000000000000000000000000000000000000000000000000007bffffffffffffffffffffffffffffffffffffffffffffffffffffffff1916827bffffffffffffffffffffffffffffffffffffffffffffffffffffffff1916145b80611827575061182682611ab5565b5b9050919050565b60008073ffffffffffffffffffffffffffffffffffffffff166002600084815260200190815260200160002060009054906101000a900473ffffffffffffffffffffffffffffffffffffffff1673ffffffffffffffffffffffffffffffffffffffff1614159050919050565b6118a5838383611b1f565b505050565b505050565b60006118d08473ffffffffffffffffffffffffffffffffffffffff16611c31565b15611a29578373ffffffffffffffffffffffffffffffffffffffff1663150b7a026118f9610d08565b8786866040518563ffffffff1660e01b815260040161191b9493929190613445565b6020604051808303816000875af192505050801561195757506040513d601f19601f8201168201806040525081019061195491906134a6565b60015b6119d9573d8060008114611987576040519150601f19603f3d011682016040523d82523d6000602084013e61198c565b606091505b5060008151036119d1576040517f08c379a00000000000000000000000000000000000000000000000000000000081526004016119c890613370565b60405180910390fd5b805181602001fd5b63150b7a0260e01b7bffffffffffffffffffffffffffffffffffffffffffffffffffffffff1916817bffffffffffffffffffffffffffffffffffffffffffffffffffffffff191614915050611a2e565b600190505b949350505050565b606060405180602001604052806000815250905090565b6060611a5882610cbd565b6000611a62611a36565b90506000815111611a825760405180602001604052806000815250611aad565b80611a8c84611c54565b604051602001611a9d9291906133cc565b6040516020818303038152906040525b915050919050565b60007f01ffc9a7000000000000000000000000000000000000000000000000000000007bffffffffffffffffffffffffffffffffffffffffffffffffffffffff1916827bffffffffffffffffffffffffffffffffffffffffffffffffffffffff1916149050919050565b611b2a838383611db4565b600073ffffffffffffffffffffffffffffffffffffffff168373ffffffffffffffffffffffffffffffffffffffff1603611b6c57611b6781611db9565b611bab565b8173ffffffffffffffffffffffffffffffffffffffff168373ffffffffffffffffffffffffffffffffffffffff1614611baa57611ba98382611e02565b5b5b600073ffffffffffffffffffffffffffffffffffffffff168273ffffffffffffffffffffffffffffffffffffffff1603611bed57611be881611f6f565b611c2c565b8273ffffffffffffffffffffffffffffffffffffffff168273ffffffffffffffffffffffffffffffffffffffff1614611c2b57611c2a8282612040565b5b5b505050565b6000808273ffffffffffffffffffffffffffffffffffffffff163b119050919050565b606060008203611c9b576040518060400160405280600181526020017f30000000000000000000000000000000000000000000000000000000000000008152509050611daf565b600082905060005b60008214611ccd578080611cb6906134d3565b915050600a82611cc6919061354a565b9150611ca3565b60008167ffffffffffffffff811115611ce957611ce861254b565b5b6040519080825280601f01601f191660200182016040528015611d1b5781602001600182028036833780820191505090505b5090505b60008514611da857600182611d349190612dd6565b9150600a85611d43919061357b565b6030611d4f9190612e0a565b60f81b818381518110611d6557611d64612ac4565b5b60200101907effffffffffffffffffffffffffffffffffffffffffffffffffffffffffffff1916908160001a905350600a85611da1919061354a565b9450611d1f565b8093505050505b919050565b505050565b6008805490506009600083815260200190815260200160002081905550600881908060018154018082558091505060019003906000526020600020016000909190919091505550565b60006001611e0f8461091b565b611e199190612dd6565b9050600060076000848152602001908152602001600020549050818114611efe576000600660008673ffffffffffffffffffffffffffffffffffffffff1673ffffffffffffffffffffffffffffffffffffffff168152602001908152602001600020600084815260200190815260200160002054905080600660008773ffffffffffffffffffffffffffffffffffffffff1673ffffffffffffffffffffffffffffffffffffffff168152602001908152602001600020600084815260200190815260200160002081905550816007600083815260200190815260200160002081905550505b6007600084815260200190815260200160002060009055600660008573ffffffffffffffffffffffffffffffffffffffff1673ffffffffffffffffffffffffffffffffffffffff16815260200190815260200160002060008381526020019081526020016000206000905550505050565b60006001600880549050611f839190612dd6565b9050600060096000848152602001908152602001600020549050600060088381548110611fb357611fb2612ac4565b5b906000526020600020015490508060088381548110611fd557611fd4612ac4565b5b906000526020600020018190555081600960008381526020019081526020016000208190555060096000858152602001908152602001600020600090556008805480612024576120236135ac565b5b6001900381819060005260206000200160009055905550505050565b600061204b8361091b565b905081600660008573ffffffffffffffffffffffffffffffffffffffff1673ffffffffffffffffffffffffffffffffffffffff168152602001908152602001600020600083815260200190815260200160002081905550806007600084815260200190815260200160002081905550505050565b6000604051905090565b600080fd5b600080fd5b60007fffffffff0000000000000000000000000000000000000000000000000000000082169050919050565b612108816120d3565b811461211357600080fd5b50565b600081359050612125816120ff565b92915050565b600060208284031215612141576121406120c9565b5b600061214f84828501612116565b91505092915050565b60008115159050919050565b61216d81612158565b82525050565b60006020820190506121886000830184612164565b92915050565b600081519050919050565b600082825260208201905092915050565b60005b838110156121c85780820151818401526020810190506121ad565b60008484015250505050565b6000601f19601f8301169050919050565b60006121f08261218e565b6121fa8185612199565b935061220a8185602086016121aa565b612213816121d4565b840191505092915050565b6000602082019050818103600083015261223881846121e5565b905092915050565b6000819050919050565b61225381612240565b811461225e57600080fd5b50565b6000813590506122708161224a565b92915050565b60006020828403121561228c5761228b6120c9565b5b600061229a84828501612261565b91505092915050565b600073ffffffffffffffffffffffffffffffffffffffff82169050919050565b60006122ce826122a3565b9050919050565b6122de816122c3565b82525050565b60006020820190506122f960008301846122d5565b92915050565b612308816122c3565b811461231357600080fd5b50565b600081359050612325816122ff565b92915050565b60008060408385031215612342576123416120c9565b5b600061235085828601612316565b925050602061236185828601612261565b9150509250929050565b61237481612240565b82525050565b600060208201905061238f600083018461236b565b92915050565b6000806000606084860312156123ae576123ad6120c9565b5b60006123bc86828701612316565b93505060206123cd86828701612316565b92505060406123de86828701612261565b9150509250925092565b600080fd5b600080fd5b600080fd5b60008083601f84011261240d5761240c6123e8565b5b8235905067ffffffffffffffff81111561242a576124296123ed565b5b602083019150836001820283011115612446576124456123f2565b5b9250929050565b600080600060408486031215612466576124656120c9565b5b600061247486828701612316565b935050602084013567ffffffffffffffff811115612495576124946120ce565b5b6124a1868287016123f7565b92509250509250925092565b6000602082840312156124c3576124c26120c9565b5b60006124d184828501612316565b91505092915050565b6124e381612158565b81146124ee57600080fd5b50565b600081359050612500816124da565b92915050565b6000806040838503121561251d5761251c6120c9565b5b600061252b85828601612316565b925050602061253c858286016124f1565b9150509250929050565b600080fd5b7f4e487b7100000000000000000000000000000000000000000000000000000000600052604160045260246000fd5b612583826121d4565b810181811067ffffffffffffffff821117156125a2576125a161254b565b5b80604052505050565b60006125b56120bf565b90506125c1828261257a565b919050565b600067ffffffffffffffff8211156125e1576125e061254b565b5b6125ea826121d4565b9050602081019050919050565b82818337600083830152505050565b6000612619612614846125c6565b6125ab565b90508281526020810184848401111561263557612634612546565b5b6126408482856125f7565b509392505050565b600082601f83011261265d5761265c6123e8565b5b813561266d848260208601612606565b91505092915050565b600080600080608085870312156126905761268f6120c9565b5b600061269e87828801612316565b94505060206126af87828801612316565b93505060406126c087828801612261565b925050606085013567ffffffffffffffff8111156126e1576126e06120ce565b5b6126ed87828801612648565b91505092959194509250565b600080604083850312156127105761270f6120c9565b5b600061271e85828601612316565b925050602061272f85828601612316565b9150509250929050565b7f4e487b7100000000000000000000000000000000000000000000000000000000600052602260045260246000fd5b6000600282049050600182168061278057607f821691505b60208210810361279357612792612739565b5b50919050565b7f4552433732313a20617070726f76616c20746f2063757272656e74206f776e6560008201527f7200000000000000000000000000000000000000000000000000000000000000602082015250565b60006127f5602183612199565b915061280082612799565b604082019050919050565b60006020820190508181036000830152612824816127e8565b9050919050565b7f4552433732313a20617070726f76652063616c6c6572206973206e6f7420746f60008201527f6b656e206f776e6572206e6f7220617070726f76656420666f7220616c6c0000602082015250565b6000612887603e83612199565b91506128928261282b565b604082019050919050565b600060208201905081810360008301526128b68161287a565b9050919050565b7f4552433732313a2063616c6c6572206973206e6f7420746f6b656e206f776e6560008201527f72206e6f7220617070726f766564000000000000000000000000000000000000602082015250565b6000612919602e83612199565b9150612924826128bd565b604082019050919050565b600060208201905081810360008301526129488161290c565b9050919050565b7f455243373231456e756d657261626c653a206f776e657220696e646578206f7560008201527f74206f6620626f756e6473000000000000000000000000000000000000000000602082015250565b60006129ab602b83612199565b91506129b68261294f565b604082019050919050565b600060208201905081810360008301526129da8161299e565b9050919050565b60006129ed8385612199565b93506129fa8385846125f7565b612a03836121d4565b840190509392505050565b60006020820190508181036000830152612a298184866129e1565b90509392505050565b7f455243373231456e756d657261626c653a20676c6f62616c20696e646578206f60008201527f7574206f6620626f756e64730000000000000000000000000000000000000000602082015250565b6000612a8e602c83612199565b9150612a9982612a32565b604082019050919050565b60006020820190508181036000830152612abd81612a81565b9050919050565b7f4e487b7100000000000000000000000000000000000000000000000000000000600052603260045260246000fd5b7f4552433732313a20696e76616c696420746f6b656e2049440000000000000000600082015250565b6000612b29601883612199565b9150612b3482612af3565b602082019050919050565b60006020820190508181036000830152612b5881612b1c565b9050919050565b7f4552433732313a2061646472657373207a65726f206973206e6f74206120766160008201527f6c6964206f776e65720000000000000000000000000000000000000000000000602082015250565b6000612bbb602983612199565b9150612bc682612b5f565b604082019050919050565b60006020820190508181036000830152612bea81612bae565b9050919050565b7f4f776e61626c653a206e6577206f776e657220697320746865207a65726f206160008201527f6464726573730000000000000000000000000000000000000000000000000000602082015250565b6000612c4d602683612199565b9150612c5882612bf1565b604082019050919050565b60006020820190508181036000830152612c7c81612c40565b9050919050565b7f4552433732313a207472616e736665722066726f6d20696e636f72726563742060008201527f6f776e6572000000000000000000000000000000000000000000000000000000602082015250565b6000612cdf602583612199565b9150612cea82612c83565b604082019050919050565b60006020820190508181036000830152612d0e81612cd2565b9050919050565b7f4552433732313a207472616e7366657220746f20746865207a65726f2061646460008201527f7265737300000000000000000000000000000000000000000000000000000000602082015250565b6000612d71602483612199565b9150612d7c82612d15565b604082019050919050565b60006020820190508181036000830152612da081612d64565b9050919050565b7f4e487b7100000000000000000000000000000000000000000000000000000000600052601160045260246000fd5b6000612de182612240565b9150612dec83612240565b9250828203905081811115612e0457612e03612da7565b5b92915050565b6000612e1582612240565b9150612e2083612240565b9250828201905080821115612e3857612e37612da7565b5b92915050565b7f4f776e61626c653a2063616c6c6572206973206e6f7420746865206f776e6572600082015250565b6000612e74602083612199565b9150612e7f82612e3e565b602082019050919050565b60006020820190508181036000830152612ea381612e67565b9050919050565b7f4552433732313a206d696e7420746f20746865207a65726f2061646472657373600082015250565b6000612ee0602083612199565b9150612eeb82612eaa565b602082019050919050565b60006020820190508181036000830152612f0f81612ed3565b9050919050565b7f4552433732313a20746f6b656e20616c7265616479206d696e74656400000000600082015250565b6000612f4c601c83612199565b9150612f5782612f16565b602082019050919050565b60006020820190508181036000830152612f7b81612f3f565b9050919050565b7f45524337323155524953746f726167653a2055524920736574206f66206e6f6e60008201527f6578697374656e7420746f6b656e000000000000000000000000000000000000602082015250565b6000612fde602e83612199565b9150612fe982612f82565b604082019050919050565b6000602082019050818103600083015261300d81612fd1565b9050919050565b60008190508160005260206000209050919050565b60006020601f8301049050919050565b600082821b905092915050565b6000600883026130767fffffffffffffffffffffffffffffffffffffffffffffffffffffffffffffffff82613039565b6130808683613039565b95508019841693508086168417925050509392505050565b6000819050919050565b60006130bd6130b86130b384612240565b613098565b612240565b9050919050565b6000819050919050565b6130d7836130a2565b6130eb6130e3826130c4565b848454613046565b825550505050565b600090565b6131006130f3565b61310b8184846130ce565b505050565b5b8181101561312f576131246000826130f8565b600181019050613111565b5050565b601f8211156131745761314581613014565b61314e84613029565b8101602085101561315d578190505b61317161316985613029565b830182613110565b50505b505050565b600082821c905092915050565b600061319760001984600802613179565b1980831691505092915050565b60006131b08383613186565b9150826002028217905092915050565b6131c98261218e565b67ffffffffffffffff8111156131e2576131e161254b565b5b6131ec8254612768565b6131f7828285613133565b600060209050601f83116001811461322a5760008415613218578287015190505b61322285826131a4565b86555061328a565b601f19841661323886613014565b60005b828110156132605784890151825560018201915060208501945060208101905061323b565b8683101561327d5784890151613279601f891682613186565b8355505b6001600288020188555050505b505050505050565b7f4552433732313a20617070726f766520746f2063616c6c657200000000000000600082015250565b60006132c8601983612199565b91506132d382613292565b602082019050919050565b600060208201905081810360008301526132f7816132bb565b9050919050565b7f4552433732313a207472616e7366657220746f206e6f6e20455243373231526560008201527f63656976657220696d706c656d656e7465720000000000000000000000000000602082015250565b600061335a603283612199565b9150613365826132fe565b604082019050919050565b600060208201905081810360008301526133898161334d565b9050919050565b600081905092915050565b60006133a68261218e565b6133b08185613390565b93506133c08185602086016121aa565b80840191505092915050565b60006133d8828561339b565b91506133e4828461339b565b91508190509392505050565b600081519050919050565b600082825260208201905092915050565b6000613417826133f0565b61342181856133fb565b93506134318185602086016121aa565b61343a816121d4565b840191505092915050565b600060808201905061345a60008301876122d5565b61346760208301866122d5565b613474604083018561236b565b8181036060830152613486818461340c565b905095945050505050565b6000815190506134a0816120ff565b92915050565b6000602082840312156134bc576134bb6120c9565b5b60006134ca84828501613491565b91505092915050565b60006134de82612240565b91507fffffffffffffffffffffffffffffffffffffffffffffffffffffffffffffffff82036135105761350f612da7565b5b600182019050919050565b7f4e487b7100000000000000000000000000000000000000000000000000000000600052601260045260246000fd5b600061355582612240565b915061356083612240565b9250826135705761356f61351b565b5b828204905092915050565b600061358682612240565b915061359183612240565b9250826135a1576135a061351b565b5b828206905092915050565b7f4e487b7100000000000000000000000000000000000000000000000000000000600052603160045260246000fdfea2646970667358221220088f17c7c78b3581bedfb8f86dbe906053fe813076b38fd8618303559098517d64736f6c63430008110033",
  "linkReferences": {},
  "deployedLinkReferences": {}
}